:100000000C946A000C9400000C9400000C94000006
:100010000C940A010C9400000C9400000C94000055
:100020000C9400000C9400000C9400000C94000050
:100030000C9400000C9400000C9400000C94000040
:100040000C9400000C9400000C9400000C94000030
:100050000C940000000080AED5F2FEFAE5C397686C
:100060003C1A05010D2A5100340868109C183421EF
:10007000E81CB414800C4C04E803800CB414E81C95
:1000800034219C18681034080100020004000800A4
:1000900010002000400080000001000200049411C4
:1000A000610A7C05C9026601B3005A002D001600E2
:1000B0000B0006000200040054001100600156000D
:1000C0002000710168001600930188001500A90145
:1000D0009E000000F894EE27ECBBF1E0FBBFEBBF05
:1000E000E5BF8DE0A2E0BB27ED938A95E9F780E0BC
:1000F00094E0A0E6ED930197E9F7E4EBF0E0859159
:100100009591009761F0A591B59105901590BF016B
:10011000F00105900D920197E1F7FB01F0CFEFE5BB
:10012000EDBFE4E0EEBFC0E6D1E00C943701BA9336
:10013000AA932C97E0E0EA87E8E0EB870E94B201FF
:1001400000E010E020E038E0EA89FB89A1E7B1E0B7
:10015000BED0EC87FD8700E010E00C30E0E01E0729
:10016000DCF5E1E0F0E0E887F987AD85AA2322F429
:10017000EFEFFFEFE887F987E889F989AFD0D00181
:100180000E949B01DF01F901EA1BFB0BAF01F901A2
:10019000A5D0D0010E949B01A889B989EA0FFB1F55
:1001A000EE87FF87F801A9EAB1E091D0A885B9856B
:1001B0000E948301AC85BD85AE1BBF0BAA87BB87A0
:1001C0009A01EE85FF85E88BF98BEA85FB85EC8744
:1001D000FD870F5F1F4FC1CFAA89BB8919972CF4E8
:1001E000E889F989E21BF30B05C0A889B989F901EF
:1001F000EA1BFB0BEE83FF83AE81BF81E4E6F0E0F8
:100200000E949B01EE83FF83EE81E0580E94B901BA
:10021000649608950A921A92FA926A937A938A934C
:100220009A93AA93BA93EA93FA93EFB7EA93D20117
:100230007EDFE2BBF20131962F013197E05AFE4F8B
:10024000E081E5BBE1E1F0E0E415F50511F44424BB
:100250005524E991EFBFF991E991B991A99199914B
:10026000899179916991F990199009901895E0E038
:10027000EABBEBBBE7BBE8BBEFEFE4BBE0E0E5BB11
:10028000EFEFE1BBE0E0E2BBE3BFE2BFECBFEFBDFD
:10029000EEBDEDBDECBDE7BDE6BDEBBDEABDE9BD24
:1002A000E8BDE2BDE1E0E5BDE0E0E4BDE3BDE0E4E2
:1002B000E9BFE0E0E5BFE4BFEAB9E0E8E8B9E0E0C3
:1002C000E0BFE6B9EDB9E6BF7894FFCFFFCFEE0F00
:1002D000FF1FAE0FBF1F0E94AE010895A885B9850C
:1002E0000E9483010F01F801A3E9B1E0F0CFF1957D
:1002F000E195F0400895FA9FF02DEB9FF00DEA9FF5
:10030000E02DF10D08951CD0F6DF0EF4F0DF089516
:100310000024112490E1AA0FBB1F001C111C0E1A0F
:100320001F0A18F40E0E1F1E01C0A1609A9599F7BE
:10033000FD01D001089504D0EBDF0EF4D8DF08955D
:10034000E894F7FF02C0D3DF6894B7FF06C0A0951A
:10035000B095119600F8039400FA0895ED91FC9180
:10036000119708955A934A933A932A931A930A93AA
:1003700008955D814C813B812A811981088108950E
:00000001FF
